:020000040800F2
:10000000101B0020B1010008DD4800086145000810
:10001000D9480008910A00080D52000800000000AD
:10002000000000000000000000000000454C000837
:10003000DD0A000800000000E1480008494C000803
:10004000CB010008CB010008CB010008CB01000860
:10005000CB010008CB010008CB010008CB01000850
:10006000CB010008CB010008CB010008CB01000840
:10007000950A0008A10A0008AD0A0008B90A00089C
:10008000C50A0008D10A0008CB010008CB0100080E
:10009000CB010008CB010008CB010008CB01000810
:1000A000CB010008CB010008CB010008CB01000800
:1000B000C54C0008CB010008CB010008CB010008AB
:1000C000CB010008CB010008CB01000889490008DA
:1000D000CB010008F551000801520008CB010008CF
:1000E000CB010008CB010008CB01000800F002F8AA
:1000F00000F04EF80AA090E8000C82448344AAF174
:100100000107DA4501D100F043F8AFF2090EBAE871
:100110000F0013F0010F18BFFB1A43F0010318473B
:10012000789A0000989A0000103A24BF78C878C1E5
:10013000FAD8520724BF30C830C144BF04680C60ED
:10014000704700000023002400250026103A28BF35
:1001500078C1FBD8520728BF30C148BF0B60704739
:10016000642900F0B180752900F0AE80732900F099
:100170007A83002070471FB500F0E4FA04000020E5
:10018000002109F049F9401C60601FBD10B510BD89
:1001900000F03AFC1146FFF7EEFF06F007F800F01A
:1001A00066FC03B4FFF7F2FF03BC00F069FC00003B
:1001B0000948804709480047FEE7FEE7FEE7FEE7FB
:1001C000FEE7FEE7FEE7FEE7FEE7FEE70448054937
:1001D000054A064B70470000C14C0008ED000008BE
:1001E000100F0020101B00201013002010130020FF
:1001F00010B500F0A7FA001D10BD00BF1D92000051
:100200000FB41CB5074B06AA7B44694600900598BD
:1002100000F0FFFA0020694600F00EFB1CBC5DF800
:1002200014FB00002D06000070B5044685690068C7
:10023000C10601D5302600E02026C00707D070BDDA
:10024000D4E9012130469047206A401C20626D1E8F
:10025000F6D570BD70B5044685690078C00707D132
:1002600070BDD4E9012120209047206A401C206203
:100270006D1EF6D570BD70B50C460546012A05D039
:100280002878800600D5EA69002302E0012305E012
:100290005B1C934202D2E05C0028F9D1A869E61801
:1002A000C01AA861286A184428622846FFF7BCFFD4
:1002B00004E0D5E9012114F8010B9047B442F8D3CA
:1002C0002846FFF7C7FF70BD2DE9F0410646002420
:1002D00010687529314616A510D0AFF300800028AC
:1002E00002DA404213A507E031688A0701D512A55A
:1002F00002E0490704D511A5012401E0AFF3008015
:1003000000210A2206F1240709E0B0FBF2FCB0FB51
:10031000F2F302FB1C00303078541846491C0028C8
:10032000F3D123462A463046BDE8F04100F012BA28
:10033000000000002D0000002B0000002000000045
:100340002DE9F05F894604464FF0000ADFF824B13A
:10035000FB44C0F820A02046E168884700287DD0F3
:10036000252806D0D4E901219047206A401C20624C
:10037000F1E700255F462046E168884720280646C9
:1003800007DB312E05D2B81910F8200C08B105434F
:10039000F1E7A80701D525F00405C4F81CA0002743
:1003A000C4F818A02A2E09D0304609F02EF838B328
:1003B00004EB8708303EC8F8186019E059F8041BB0
:1003C000204604EB87029161E1688847012F0646C9
:1003D00018D1E069002820DA25F020051DE0D8F8C2
:1003E000180000EB800006EB40003038C8F8180019
:1003F0002046E1688847064609F007F80028EED154
:10040000012F0AD02E2E08D12046E16888477F1C94
:100410000646022F45F02005C4DBA069002803DA58
:10042000404245F00105A061E80701D025F0100524
:10043000A6B1A6F14100192802D8203645F400657E
:100440004A463146204625604D46FFF789FE60B199
:10045000012807D0ED1D25F0070000E007E000F1BE
:10046000080978E705F1040975E730467AE7206A5C
:10047000BDE8F09FF090000070B5064600F066F908
:100480000468054630460A22002100F0F0F92C608D
:1004900070BD401ECAB210F8011F8A4202D0002966
:1004A000F9D10020704730B505460B462A4613F8AF
:1004B000014B12F8010B08B1A042F8D01CB1002882
:1004C00002D06D1CF1E7284630BD40EA0103024628
:1004D00030B59B0710D14FF0013400E008C208C9C5
:1004E0001D1B9D4315EAC41FF8D013F0FF0102F84D
:1004F000011B0DD01B0AF8E711F8013B002B02F895
:10050000013B05D011F8013B002B02F8013BF3D170
:1005100030BD10B5431C02E010F8011B71B181071A
:10052000FAD14FF0013202C88C1A8C4314EAC2117E
:10053000F9D0C01A0A0603D0C01E10BDC01A10BDE3
:100540000A0401D0801E10BD0902FCD0401E10BD5F
:10055000421E12F8013F002BFBD111F8013B002B8A
:1005600002F8013BF9D17047032A40F2308010F0C5
:10057000030C00F0158011F8013BBCF1020F62443E
:1005800098BF11F801CB00F8013B38BF11F8013BCF
:10059000A2F1040298BF00F801CB38BF00F8013B7C
:1005A00011F0030300F02580083AC0F0088051F8EC
:1005B000043B083A51F804CBA0E80810F5E7121DF7
:1005C0005CBF51F8043B40F8043BAFF30080D20716
:1005D00024BF11F8013B11F801CB48BF11F8012BE2
:1005E00024BF00F8013B00F801CB48BF00F8012B05
:1005F000704710B5203AC0F00B80B1E81850A0E861
:100600001850B1E81850A0E81850203ABFF4F5AFE0
:100610005FEA027C24BFB1E81850A0E8185044BF3C
:1006200018C918C0BDE810405FEA827C24BF51F8A9
:10063000043B40F8043B08BF7047D20728BF31F89D
:10064000023B48BF11F8012B28BF20F8023B48BFEE
:1006500000F8012B70474FF000020429C0F012800F
:1006600010F0030C00F01B80CCF1040CBCF1020F65
:1006700018BF00F8012BA8BF20F8022BA1EB0C013A
:1006800000F00DB85FEAC17C24BF00F8012B00F830
:10069000012B48BF00F8012B70474FF0000200B556
:1006A000134694469646203922BFA0E80C50A0E895
:1006B0000C50B1F12001BFF4F7AF090728BFA0E843
:1006C0000C5048BF0CC05DF804EB890028BF40F80F
:1006D000042B08BF704748BF20F8022B11F0804F51
:1006E00018BF00F8012B704710B5044610F0030F37
:1006F00008BF11F0030F40F015804FF0013E121FAC
:10070000C0F20E8051F8043BA3EB0E0C2CEA030C54
:100710001CEACE1C08BF40F8043BF0D0A1F1040154
:1007200002F10402521E08DB11F8013B00F8013B04
:10073000002BF7D11146FFF78EFF204610BD704702
:10074000704770470048704780000020004870479D
:10075000600000202DE9F0470D4699469246044678
:1007600000F124080168880604D5E06921F0100131
:10077000216000E00120A84201DD471B00E00027C6
:10078000A1697A1902EB0900081AA0612078C00655
:1007900002D42046FFF748FD002608E0D4E90121F5
:1007A0001AF806009047206A401C761C20624E45CD
:1007B000F4DB2078C0060AD52046FFF735FD06E0B9
:1007C000D4E9012130209047206A401C2062381E65
:1007D000A7F10107F4DC07E0D4E9012118F80500CE
:1007E0009047206A401C2062281EA5F10105F3DC19
:1007F0002046FFF72FFD2078000602D50220BDE835
:10080000F0870120FBE7000001694A1C02610878BB
:10081000704700B58FB0CDE9013100210591054940
:100820007944CDE9031011466846FFF789FD0FB002
:1008300000BD0000E5FFFFFF0A6802F8010B0A6037
:10084000704710B5436913B1AFF3008001E0FFF7C3
:1008500012FD012010BD127800F124010A7000225F
:100860004A700122EDE711684FF0FF32E9E72DE908
:10087000F04791460F4680460446002614F8015B77
:100880002DB1FFF7B5FC0068405DC007F6D12B2DF8
:1008900002D02D2D18D0641E4A463946204600F05D
:1008A00023F827B13968A14201D1C7F800804FF081
:1008B000020471050BD54042002803DDFFF746FF17
:1008C0000460A007BDE8F08746F48066E4E70028EE
:1008D000F8DAFFF73BFF04606FF00040F2E700003A
:1008E00000487047600000202DE9F05F8246154601
:1008F0008B4600270AF10104B9460078302801D060
:100900009DB113E014F8010B0127782803D0582873
:1009100001D045B10AE00DB1102D07D1002714F820
:10092000010B102502E0082500E00A250026B0464C
:100930000EE005FB080005FB06F101271FFA80F811
:1009400001EB1046B6F5803F00D3B94614F8010B11
:10095000294600F07EF80028EBDABBF1000F05D045
:100960000FB1641E00E05446CBF80040B9F1000F0F
:1009700006D0FFF7EBFE02210160C81EBDE8F09F24
:1009800048EA0640FAE700004FF0013C50F8042B1B
:1009900051F8043B9A4221D1A2EB0C03934313EA92
:1009A000CC1317D150F8042B51F8043B9A4215D1BF
:1009B000A2EB0C03934313EACC130BD150F8042B96
:1009C00051F8043B9A4209D1A2EB0C03934313EA7A
:1009D000CC13DBD04FF00000704700BFD01A01BA33
:1009E000B1FA81F101F0180122FA01F0CB40DBB23B
:1009F000C0B2C01AC1F120012CFA01F3D11A9143FF
:100A000011EAC311E6D170477546FFF769FFAE469C
:100A100005006946534620F00700854618B020B50A
:100A2000FFF7D4FBBDE820404FF000064FF0000771
:100A30004FF000084FF0000BAC46ACE8C009ACE842
:100A4000C009ACE8C009ACE8C00921F007018D4637
:100A500070473A2800D2303820F02002412A01D3D2
:100A6000A2F13700884201D34FF0FF30704710B534
:100A70000446AFF300802046BDE81040FFF791BB6D
:100A800001491820ABBEFEE72600020070470000B7
:100A9000FEE7000040F64810C2F2000000F0A8B9DE
:100AA00040F68C10C2F2000000F0A2B940F614200B
:100AB000C2F2000000F09CB940F6D010C2F2000073
:100AC00000F096B940F65820C2F2000000F090B94C
:100AD00040F69C20C2F2000000F08AB97047000086
:100AE000EFF3108072B600BFFEE7000070B542F26F
:100AF0000C060446C4F2020600F0F6FD3168C90790
:100B000017D13068800644BF202030603068C006AE
:100B100007D43069C00704D1306840075CBF0020AB
:100B200070BD3068C00620D400203168490728D441
:100B300031E0002C44D00546601C0DD13068C00760
:100B4000DFD03068C0071CBF30685FEAC070D8D003
:100B50003068C007F2D1D4E700F0C6FD401BA042C8
:100B60002ED83068C007F7D1CBE740F66840C2F214
:100B70000000C16941F00201C161102031684907DC
:100B800009D540F66841C2F20001CA6940F004008C
:100B900042F00102CA613169C90702D13060012007
:100BA00070BD40F66841C2F20001CA6942F0040219
:100BB000CA61316921F0010131613060012070BDED
:100BC000032070BDB0B5864602208EF80500DEF821
:100BD00000004AB3531E032B02F0030C01D2002283
:100BE00010E0A2EB0C03A1F11004002254F8105FF6
:100BF00004320560656893420560A5680560E56894
:100C00000560F3D1BCF1000F0ED051F82230BCF1D9
:100C1000010F036008D001EB82014A68BCF1020FAA
:100C200002601CBF89680160006801218EF8051010
:100C3000B0BD0000002804BF0120704710B5044675
:100C4000407918B101206071002010BD0020207192
:100C5000204600F005F801206071002010BD000062
:100C600081B0006843F20001C4F20201884201D061
:100C700001B0704741F21400C4F20200016841F073
:100C800040010160006800F040000090009801B051
:100C900070470000014690F82100022816D108682C
:100CA000D1E90FC3026822F00E020260026822F04E
:100CB00001020260012000FA03F2CCF8042081F85E
:100CC00021000020002281F8202070470420886342
:100CD0000120002281F820207047000080B590F8A4
:100CE0002110022923D10268116821F00E01116040
:100CF0002F211368C4F202018A4240F20401C4F2B7
:100D0000020123F00103136016DD3023C4F2020355
:100D10009A421DD04423C4F202039A421BD05823A6
:100D2000C4F202039A421BD14FF4803320E0042125
:100D300081630121084680BD0823C4F202039A4260
:100D40000CD01C23C4F202039A4209D110230FE0F5
:100D50004FF480730CE04FF4805309E0012307E067
:100D600001F1680C4FF08073624508BF4FF48013A7
:100D70000B60012180F82110426B002180F82010C7
:100D80000AB190470021084680BD00004FF00101E4
:100D900060B302684FF6F873CBF6FD7302EB030CF9
:100DA0004CF6CD43CCF6CC43ACFB033C136823F0AC
:100DB000010313600023136053609360D3606FF0EE
:100DC000030202EA9C0240F2000CC4F2020C9140C1
:100DD000C0E90FC2CCF804100021C0E90A33C0E911
:100DE0000C33836380F8213080F820300846704748
:100DF00010B50168D0E90FCEDCF800200B685C0765
:100E00002BD5042404FA0EF4144026D00A68920666
:100E100003D40A6822F004020A602F22C4F20202FC
:100E2000914240F20402C4F202025FDD3023C4F2B8
:100E30000203994275D04423C4F20203994276D04A
:100E40005823C4F2020399427CD14FF480231360EB
:100E5000C16A002940F081809BE09C0729D50224CB
:100E600004FA0EF4144024D00A68920606D40A68E4
:100E700022F00A020A60012280F821202F22C4F207
:100E80000202914240F20402C4F202023DDD30232C
:100E9000C4F20203994263D04423C4F2020399428C
:100EA00061D05823C4F20203994261D14FF4003358
:100EB00066E01B076DD5082303FA0EF31A4008BF3E
:100EC00010BD0A6822F00E020A60012101FA0EF23A
:100ED000CCF80420816380F82110016B00220029E6
:100EE00080F8202055D0BDE8104008470823C4F200
:100EF0000203994221D01C23C4F20203994221D15A
:100F000040231360C16A41BB43E00823C4F20203DB
:100F100099422BD01C23C4F20203994228D12023EA
:100F20002EE04FF480631360C16AB1B931E04FF431
:100F300080431360C16A81B92BE004231360C16A46
:100F400059B926E002F168044FF08063A14208BF5E
:100F50004FF480031360C16AD9B1BDE8104008475F
:100F60004FF400730CE04FF4005309E0022307E054
:100F700002F168044FF00073A14208BF4FF4001360
:100F80001360816A002280F8202011B1BDE8104072
:100F9000084710BD014600284FF0010008BF704708
:100FA0002DE9F043D1F800C04FF6F873CBF6FD738E
:100FB0004CF6CD426344CCF6CC42A3FB02236FF047
:100FC000030707EA9303002701F10C09C4F20207A3
:100FD000D1E9012E99E87002D1F81C80C1E90F73A4
:100FE000022381F82130DCF8003043F6F077BB4370
:100FF0001A4342EA0E0222432A43324342EA0902DA
:1010000042EA0802CCF8002000228A6381F821001D
:1010100081F820200020BDE8F0437047F0B590F83B
:1010200020C0BCF1010F32D04FF0010E80F820E05B
:1010300090F821C0BCF1010F26D14FF0020C80F8CE
:1010400021C04FF0000CC0F838C0D0E900C4C56A18
:10105000C66BDCF80070102C27F00107CCF800708C
:10106000006C0EFA00F070600846CCF8043004BF43
:1010700010460A46CCF80800CCF80C20DCF800003A
:101080003DB140F00E000CE0002180F8201002205D
:10109000F0BD20F00400CCF80000DCF8000040F0C7
:1010A0000A00CCF80000DCF8000040F00100CCF8A9
:1010B00000000020F0BD0000B0B5044600F014FBB5
:1010C000054640F20000C2F200000078611C18BF23
:1010D000044400BF00F008FB401BA042FAD3B0BD9F
:1010E0002DE9F04381B040F66846C2F20006327E38
:1010F000012A03D1022001B0BDE8F083054601209A
:101100002C6830764CF250308846FFF7EFFC022C0A
:101110001CD100284ED1002042F21004F061C4F22C
:101120000204206840F004002060206840F0400085
:1011300020604CF25030FFF7D9FC216821F0040107
:1011400021600021317601B0BDE8F08390BB4FF003
:10115000FF30C8F80000D5E9027007EB8020874215
:1011600028D242F21004C4F202044FF0000900BF7A
:10117000C6F81C90206840F002002060676020687C
:1011800040F0400020604CF25030FFF7AFFC216887
:1011900021F00201216098B9D5E9020107F58067C5
:1011A00000EB81208742E3D300200021317601B09B
:1011B000BDE8F08301200021317601B0BDE8F08365
:1011C000C8F800700021317601B0BDE8F08300005E
:1011D00042F21001C4F20201086840F080020020CF
:1011E0000A6070472DE9F04F81B040F66848C2F2BE
:1011F0000008924698F81820012A03D1022001B075
:10120000BDE8F08F8146012088F818004CF250307C
:101210001C460E46FFF76AFC28B1002188F818101A
:1012200001B0BDE8F08F4D4642F21007B9F1020F50
:1012300018BF0425C4F20207B9F1010F08BF4D46DB
:101240006FF01F0900204FF0000B00BF2022002389
:101250000101A2EB0012C8F81C3004FA02F22AFACB
:1012600001F13B68114309EB0012002A58BF24FA30
:1012700002F143F001023A6026F810104CF25030AF
:10128000FFF734FC3968002821F001013960C4D12E
:101290000BF1010B5FFA8BF08542D7D800200021BB
:1012A00088F8181001B0BDE8F08F000042F2040089
:1012B000C4F20200C16809065CBF0020704740F21A
:1012C0002311C4F26751016048F6AB11CCF6EF511F
:1012D0000160C068C0F3C010704700002DE9F04FF6
:1012E00081B0002900F0E18041F20042C4F2010225
:1012F00040F20C4390424FF00402C4F2010308BFD5
:10130000032240F2004A009203F57D72C4F2010A02
:10131000904271D06FF01F05AAF57E7B01241AE080
:101320000346B9F5807F24BF2A4604331F680F2681
:101330009640B743042606FA02F23A431A60C2689E
:1013400002EA0802C26031FA04F204F1010405F174
:10135000040500F0AA80621E0123934013EA0109EC
:10136000F1D04FEA920C05F1200202F00C030F2796
:101370005BF82C6007FA03FE41F20007C4F2010794
:10138000B84206EA0E070FD040F60046C4F2010646
:10139000B042009E08BF012606FA03F39F426FEA9F
:1013A0000908BDD107E000BF022606FA03F39F42F9
:1013B0006FEA0908B4D1DAF8003040F20C4603EACB
:1013C0000803CAF80030DAF80430C4F2010603EA70
:1013D0000803CAF80430336803EA08033360DAF814
:1013E000083003EA0803CAF808305BF82C3023EA17
:1013F0000E034BF82C3093E74FF0010C0024AAF5B4
:101400007E784FF00F0E01271CE000BF23460546F3
:10141000B6F5807F24BF203B04352E680EFA03F218
:1014200026EA0202042606FA03F31A432A60C26877
:1014300002EA0B02C26031FA07F207F1010704F178
:10144000040432D07A1E0CFA02F313EA0106F2D039
:10145000930858F8232004F00C050EFA05F912EA57
:10146000090F6FEA060BD1D1DAF8005040F20C42B6
:1014700005EA0B05CAF80050DAF80450C4F201027C
:1014800005EA0B05CAF80450156805EA0B05156056
:10149000DAF8085005EA0B05CAF8085058F8235046
:1014A00025EA090548F82350B0E701B0BDE8F08F00
:1014B0002DE9F04F82B00E68002E00F0FD8040F262
:1014C0000C4C41F200424FF6FF7BC4F2010CC4F217
:1014D0000102042300240127C1F2100B4FF0000A7F
:1014E0004FF000094FF00F0E904208BF0323009306
:1014F0003EE00123BB402B4342F82B30D1F804B02F
:1015000040F20047C4F201075FEACB22BA6854BF39
:1015100022EA080242EA0802BA60DCF800205FEA28
:101520008B2354BF22EA080242EA0802CCF80020CA
:101530007A685FEA8B3354BF22EA080242EA080263
:101540007A605FEACB333A684FF6FF7B54BF22EAFA
:10155000080242EA08023A600127C1F2100B0E6845
:101560000AF1010A36FA0AF204F1040400F0A48038
:1015700007FA0AF816EA080FF1D04A685A4511DC52
:10158000122A51D8DFE802F0340A42465050505037
:10159000505050505050505050494D00D1F80C9080
:1015A00042E000BF4FF6FF73C1F221039A420FDC05
:1015B0000023C1F211039A421AD00023C1F2120390
:1015C0009A4215D00023C1F221039A4210D02BE099
:1015D0000023C1F222039A420AD00023C1F2310350
:1015E0009A4205D00023C1F232039A421CD100BFB7
:1015F0008A6842B1012A14BFC0F81480C0F8108074
:101600004FF0080910E04FF004090DE0CA6802F13C
:10161000080909E04FF0000906E0CA6802F1040970
:1016200002E0CA6802F10C0922460346BAF1080F2B
:1016300024BF203A04331D680EFA02F6B54309FAB6
:1016400002F22A431A60CA79D2067FF588AF41F2C6
:101650001803C4F202031A684FEA9A0B42F001021F
:101660001A601A6804F00C0702F001020192019A54
:1016700040F20042C4F20102A2F57E7252F82B3011
:1016800040F600060EFA07F5C4F20106B04223EA5E
:1016900005050FD040F60043C4F2010398423FF421
:1016A00028AF41F20003C4F201039842009B08BF37
:1016B00002231FE700231DE702B0BDE8F08F000002
:1016C0008068084018BF012070470000C26802EA25
:1016D0000103914341EA034101617047002A08BFB9
:1016E000090401617047000040F60C70C2F200006E
:1016F00000687047B0B5B0B3044690F83D0028B913
:10170000002084F83C00204600F0C6F8242084F82D
:101710003D002068016821F001010160016841F489
:1017200000410160016821F40041016000F08CFA81
:1017300048F28041C0F21E0140F6001288424FF08C
:101740000001C0F23D02656838BF0121904248F2B5
:10175000A1624FF00003C0F2010238BF012395429D
:1017600038BF0B460BB10120B0BD4DF68361C4F20A
:101770001B31A0FB011221684FEA924C4B6823F009
:101780003F0343EA92424A600A6A48F2A063C0F209
:1017900001039D4222F03F0313D80CF101020138EE
:1017A0006D001A43B0FBF5F00A62CA6901304CF6CD
:1017B000FF736FF31F3022EA030C042898BF042044
:1017C0003FE04FF496720CFB02FC44F6D352C1F298
:1017D0006202ACFB022C012202EB9C121A430A6249
:1017E000CA69A3684CF6FF7C22EA0C0CA0F1010E3A
:1017F0009BB119206843BEFBF0F00422013062F374
:101800001F30000512D09BB119206843BEFBF0F0D9
:101810000422013062F31F3011E005EB4500BEFBEE
:10182000F0F001306FF31F300005ECD1012008E02B
:1018300005EB4500BEFBF0F001306FF31F3040F4C4
:10184000004040EA0C00C8610868D4E9072320F092
:10185000C000104318430860886848F2FF3204F162
:101860000C0C90439CE82C10184310438860C86807
:1018700020F0FF00284340EA0C00C860086840F0F0
:101880000100086000202021206484F83D102063BE
:1018900084F83E00B0BD000010B586B0016845F286
:1018A0000040C4F2000081424FF00001CDE9041174
:1018B000CDE9021101D006B010BD41F21804C4F206
:1018C0000204216800F5384041F0080121602168D8
:1018D00001F0080101910199C021029112210391A7
:1018E0000321059102A9FFF7E3FD606840F40010B1
:1018F0006060606800F400100190019806B010BDAF
:1019000040F2000040F60C71C2F20000C2F2000189
:1019100000780A68104408607047000080B542F201
:101920000000C4F20200016841F0100101600320D0
:1019300000F09EF80F2000F005F800F027F80020D6
:1019400080BD000070B540F20006C2F2000640F211
:1019500008013278C2F200014FF47A730968B3FBD0
:10196000F2F20446B1FBF2F1084601F0AFF90F2C98
:101970004FF0010508D838B94FF0FF30214600225A
:10198000002500F049F87460284670BD82B041F22D
:101990001800C4F202000168012241F00101016057
:1019A000016801F0010101910199416841F0805104
:1019B0004160406800F08050009000980420C4F21C
:1019C0000100016862F31A61016002B07047000013
:1019D000002848BF704700F01F01012202FA01F100
:1019E0004EF280124009CEF2000242F82010BFF3FE
:1019F0004F8FBFF36F8F7047002848BF704700F0CC
:101A00001F01012202FA01F14EF200124009CEF24A
:101A1000000242F82010704710B54EF60C5CCEF272
:101A2000000CDCF80030C3F3022E8EF00704042C07
:101A300028BF0424BEF103034FF0FF3E0EFA04F466
:101A400038BF0023A14399400EFA03F39A4300F0F4
:101A50000F03043B1143634409010C3300F160425E
:101A6000B0F1FF3FC8BF02F56443197010BD00001C
:101A70004EF60C51CEF200010A684FF6FF031A40F1
:101A800060F30A2242F0806040F0FD700860704709
:101A900003F038FD2DE9F04381B0002800F0838089
:101AA00042F20008C4F202080446D8F800000D46CD
:101AB00000F0070088420CD2D8F8000020F00700A0
:101AC0002843C8F80000D8F8000000F00700A8423A
:101AD00069D1206841F204098107C4F2020917D5CF
:101AE000410705D5D9F8001041F4E061C9F80010AC
:101AF000010705D5D9F8001041F46051C9F800106C
:101B0000D9F80010A26821F0F0011143C9F80010C3
:101B1000C00741D1D8F8000000F00700A8420CD956
:101B2000D8F8000020F007002843C8F80000D8F8D3
:101B3000000000F00700A84235D12068410707D512
:101B4000D9F80010E26821F4E0611143C9F80010EF
:101B5000000708D5D9F80000216920F4605040EA58
:101B6000C100C9F80000D9F8002002F00C000828D4
:101B700041F20020C0F27A004BD149F2A343C2F3F4
:101B80008341C0F60003595CD20336D440F60010FE
:101B9000C0F23D0048433CE06068012807D159F895
:101BA000041C89030CD4012001B0BDE8F08359F86E
:101BB000041C022802D18901F5D501E08907F2D57C
:101BC000D9F8001021F003010843C9F80000FFF71D
:101BD0008BFD064641F28837D9F80000616800F0B5
:101BE0000C00B0EB810F95D0FFF77EFD801BB84253
:101BF000F2D9032001B0BDE8F083D9F8002049F202
:101C0000A143C2F34042C0F600039A5C4843B0FBD4
:101C1000F2F0D9F8001049F28942C1F30311C0F67D
:101C20000002515C40F2080220FA01F140F2040087
:101C3000C2F200000068C2F200021160FFF782FEEB
:101C4000002001B0BDE8F08340F2080041F2040139
:101C5000C2F20000C4F202010068096849F2994228
:101C6000C1F30221C0F60002515CC8407047000079
:101C700040F2080041F20401C2F20000C4F2020185
:101C80000068096849F29942C1F3C221C0F6000216
:101C9000515CC840704700002DE9F04182B0002837
:101CA00067D00446007841F20006C007C4F202067D
:101CB00024D0706800F00C0004281AD0706800F07E
:101CC0000C00082802D17068C00312D46068002894
:101CD00000F04181B0F5803F07D03168B0F5A02F0A
:101CE00040F06E8141F480203060306840F48030F4
:101CF0006CE13068800301D56068D0B3207880073C
:101D000018D5706810F00C0F07D0706800F00C0048
:101D1000082856D17068C00353D43068800702D5B4
:101D20002069012825D13068616920F0F80040EA77
:101D3000C1003060207800071FD42078400731D4DC
:101D4000E56995B1706800F00C00082840F08B80C0
:101D5000012D0ED07068216A00F480328A4208D1C9
:101D6000616A00F47010884203D1002002B0BDE81F
:101D7000F081012002B0BDE8F081A069B8B3002075
:101D8000C4F242200121C0F88014FFF7ADFC0546E3
:101D9000706A800700F18A80FFF7A6FC401B0228CA
:101DA000F6D920E1F069C00033D4F0694FF00108A2
:101DB00040F08050F061F06900F080500090009891
:101DC00029E02069002840F20000C4F2422000F01F
:101DD000978001210160FFF787FC05463068800786
:101DE000A1D4FFF781FC401B0228F7D9FBE00020BB
:101DF000C4F242200021C0F88014FFF775FC0546AC
:101E0000706A800799D5FFF76FFC401B0228F7D94D
:101E1000E9E04FF0000847F20007C4F20007386815
:101E2000C00510D4386840F480703860FFF75CFC5F
:101E3000054600BF3868C00505D4FFF755FC401BB8
:101E40006428F7D9CFE0E06800286BD0012806D0DD
:101E5000316A052840F0968041F004003062306A13
:101E600040F0010094E00027C4F2422700203866C9
:101E7000FFF73AFC022D05460CD100BF3068800107
:101E800040F1B580FFF730FC401B02284FF0030003
:101E9000F4D96BE7306880017FF567AFFFF724FC6A
:101EA000401B02284FF00300F4D95FE740F208001E
:101EB000C2F20000006844F6D351C1F26201A0FBF7
:101EC0000101480A019000BF00BF0198411E00288F
:101ED00001913FF432AF00BF0198411E00280191EB
:101EE0003FF42BAF00BF0198411E002801913FF441
:101EF00024AF00BF0198411E00280191E4D11CE7E6
:101F000000210160FFF7F0FB054600BF3068800745
:101F10007FF510AFFFF7E8FB401B02284FF00300EE
:101F2000F4D923E7306A20F001003062306A20F0F3
:101F300004003062FFF7D8FB054641F2883700BF46
:101F4000306A800733D5FFF7CFFB401BB8424FF014
:101F50000300F5D90AE7306820F48030306030683B
:101F600020F480203060FFF7BFFB05463068800317
:101F70007FF5C4AEFFF7B8FB401B64284FF00300A9
:101F8000F4D9F3E621F001003062306A20F0040059
:101F90003062FFF7A9FB054641F28837306A8007B7
:101FA00005D4FFF7A1FB401BB842F7D91BE0B8F1FD
:101FB000000F3FF4C5AEF06920F08050F061BFE63D
:101FC00021F480303060306820F480203060FFF7EA
:101FD0008BFB0546306880033FF590AEFFF784FB2E
:101FE000401B6428F6D9032002B0BDE8F081206AC6
:101FF000B0F5803F05D17168A26821F4003111432A
:1020000071607168626A21F4741110430843706052
:1020100001203866FFF768FB044600BF3068800186
:102020003FF5A3AEFFF760FB001B02284FF0030053
:10203000F4D99BE670470000B0B584B00446006850
:10204000416882684B0609D502F04103012B05D196
:10205000216C204604B0BDE8B04008470B0608D507
:1020600012F0020305D0616C204604B0BDE8B04018
:1020700008478B0610D512F060030DD012F0400314
:1020800017D094F85130032B08D100210291C16878
:10209000029180680290029804B0B0BD636D43F075
:1020A0000403636500230393C36803938368039366
:1020B000039B12F020020CD0626D42F001026265B7
:1020C0000022019282680192026822F040020260BE
:1020D000019A626D002ADFD04268890722F0E0028F
:1020E00042604FF0010284F851201FD0416844F64D
:1020F000951521F003014160E06CC0F6000538B190
:102100004563FEF7EBFD18B1606D40F0400060657F
:10211000A06C0028C0D04563FEF7E0FD0028BBD0CE
:10212000606D40F04000606504B0B0BD204604B072
:10213000BDE8B040FFF77EBF70B538B10446406AD5
:1021400030B10020206104F1140007E0012070BDCF
:102150006068B0F5827F03D004F11C0000210160AB
:102160000026A66294F851004FF0000C38B92046C2
:1021700084F8506000F03AF8A06A00F4005C022194
:1021800084F8511094E80E00E0680D6802F4827241
:1021900025F040050D6003F404431A44236900F45C
:1021A0000060104403F002026369104403F001026E
:1021B000A369E569104403F40072104405F0380285
:1021C000256A104405F08002104340EA0C000860C4
:1021D000042000EA13404860C86920F40060C86128
:1021E0000120666584F85100304670BD2DE9F0414C
:1021F00086B0002740F600050597CDE90377044631
:10220000C4F20105006805F520518842029702D00A
:1022100006B0BDE8F08141F21800C4F20200016886
:1022200002AE41F480510160016840F21C0801F4E3
:102230008051019101990168C4F2020841F0040142
:1022400001600068314600F0040001900198A02070
:10225000029002200390032005902846FFF728F9FA
:102260004020CDE90207284631460497FFF720F9C0
:1022700040F64815C2F2000580262846C5E90087C9
:10228000C5E90276C5E90477C5E90677FEF782FE5F
:10229000002818BFFEF724FCE5646C6240F68C153C
:1022A00008F11400C2F200051021002285E8470061
:1022B0002846C5E90422C5E90622FEF76BFE002880
:1022C00018BFFEF70DFC232000210022A5646C62DC
:1022D000FFF7A2FB2320FFF78FFB06B0BDE8F081DC
:1022E0002DE9F04381B0044690F85100012812D145
:1022F0006068994617460D46B0F5827F02D1A06806
:10230000002862D094F85000012806D102263046F9
:1023100001B0BDE8F0830226D3E0012684F85060C6
:10232000FFF7E2F9002D18BF002F00F0CA808046A9
:102330000420002184F851006165A563A787E78721
:102340002163A186E186A2682068B2F5004F21646E
:10235000616448D00168490650D5E268E18F002ADF
:1023600054D0002900F0838019F101011BD000BF77
:102370008168C90706D1FFF7B7F9A0EB0800484507
:1023800008D3A5E0C068A16B21F8020BA163E08F20
:102390000138E087E08F002869D020688168C9078C
:1023A000E9D0EFE720688168C90702D1FFF79CF9FF
:1023B00007E0C068A16B21F8020BA163E08F013830
:1023C000E087E08F0028EDD151E0042084F851002F
:1023D000204629462A463B46CDF8009000F004FAF4
:1023E00001B0BDE8F083016821F04001016001689F
:1023F00021F48041016001684906AED4016841F0D2
:1024000040010160E268E18F002AAAD179B319F195
:1024100001011AD08168C90706D1FFF765F9A0EB61
:102420000800484509D353E0007BA16B0870A06BFE
:102430000130A063E08F0138E087E08FB8B12068F9
:102440008168C907E9D0EFE720688168C90702D130
:10245000FFF74AF908E0007BA16B0870A06B013020
:10246000A063E08F0138E087E08F0028ECD160683E
:10247000B0F5827F11D1A068B0F5004F02D0B0F561
:10248000806F0AD12168B0F5806F0A6822F040029F
:102490000A6002D12046012101E0204680214A46FF
:1024A000434602F05DFB28B1606D40F0200060659E
:1024B00020206065606D0126002804BF84F851600B
:1024C0000026002084F85000304601B0BDE8F083BB
:1024D000012084F851000326F3E70000B0B504465C
:1024E00090F85100012811D113460A46A16891B90C
:1024F0006068B0F5827F0ED14FF0040C2046114683
:1025000084F851C0BDE8B04000F0D6BA02200021E6
:1025100084F85010B0BD94F85000012804BF022088
:10252000B0BD0120002A84F8500018BF002BEED067
:1025300004204FF0000C84F85100C4F854C0A2638A
:10254000A387E387C4E910CCA4F834C0A4F836C04C
:10255000D4F800E0B1F5004F0BD1DEF8000020F018
:102560004000CEF80000DEF8000020F48040CEF8F5
:102570000000E06C44F6C11144F6D91344F6A115ED
:10258000C0F60001C0F60003C0F60005C0E90A313C
:10259000C0E90C5CE38F0EF10C01FEF73FFD40B18A
:1025A000606D40F0100060650120002184F850103B
:1025B000B0BD20680168490603D4016841F04001BC
:1025C0000160416841F020014160416841F0010132
:1025D00041600020002184F85010B0BD40F6087022
:1025E000C2F2000001210160704700007047000046
:1025F0002DE9F04182B0044690F85000012803D143
:10260000022002B0BDE8F08101201D4616460F46AB
:1026100084F85000FFF768F894F8511001290CD1A4
:102620008046002F4FF0010018BF002E0CD1002172
:1026300084F8501002B0BDE8F0810220002184F837
:10264000501002B0BDE8F0810320002184F8510051
:1026500061652763A686E686A163A187E187A068F6
:102660002164B0F5004F2068616407D1016821F052
:1026700040010160016841F4804101600168490640
:1026800003D4016841F0400101606168731EE26893
:10269000B1FA81F1B3FA83F349095B09B2F5006F2E
:1026A00041EA030139D131B137F8021BC160276318
:1026B000E18E0139E186E18E00296FD0691C1AD0C4
:1026C0008168890706D4FFF70FF8A0EB0800A8423D
:1026D00008D345E0216B31F8022BC2602163E08E04
:1026E0000138E086E08E002858D02068816889078C
:1026F000E9D5EFE720688168890702D4FEF7F4FF87
:1027000007E0216B31F8022BC2602163E08E0138B3
:10271000E086E08E0028EDD140E039B139780173D0
:10272000206B01302063E08E0138E086E08EA8B394
:10273000681C0BD122E0216B09780173206B0130FA
:102740002063E08E0138E086E08E38B3206881682F
:102750008907F0D4FEF7C8FFA0EB0800A842F3D326
:10276000012084F851000320002184F8501002B0A9
:10277000BDE8F081FEF7B8FFE08E78B1206881688F
:102780008907F7D5216B09780173206B013020632D
:10279000E08E0138E086E08E0028EFD120468021CF
:1027A0002A46434602F0DCF928B1606D40F0200073
:1027B000606520206065A06838B90020019020681D
:1027C000C1680191806801900198606D00284FF008
:1027D000010004BF84F851000020002184F850104B
:1027E00002B0BDE8F08100002DE9F04381B004465D
:1027F00090F85000012803D1022001B0BDE8F08319
:1028000001201E4615460F4684F85000FEF76CFF67
:1028100094F85110814601290BD1002F4FF001008F
:1028200018BF002D12D1002184F8501001B0BDE86E
:10283000F0836068B0F5827F40F0988004294FF003
:102840000200F0D1A1680029E7D0ECE7002EEAD021
:1028500094F85100002104281CBF052084F8510081
:102860006165A563E687A6872763E6862068A68656
:10287000216461640168490603D4016841F04001A4
:1028800001606168731EE268B1FA81F1B3FA83F303
:10289000DDF8208049095B09B2F5006F41EA0301C8
:1028A0006BD131B137F8021BC1602763E08E01386C
:1028B000E086012518F1010031D101E0FEF714FF97
:1028C000E08E18B9E08F002800F0C0802068816891
:1028D00089070CD5E18E012D09D141B1216B00256D
:1028E00031F8022BC2602163E18E0139E1868168F3
:1028F000C907E3D0E18F0029E0D0C068A16B0125B2
:1029000021F8020BA163E08F0138E087D6E700BF12
:10291000FEF7EAFEA0EB0900404580F0AB80E08EB8
:1029200018B9E08F002800F091802068816889073D
:102930000CD5E18E012D09D141B1216B002531F873
:10294000022BC2602163E18E0139E1868168C907EB
:10295000DED0E18F0029DBD0C068A16B012521F812
:10296000020BA163E08F0138E087D1E7022000214C
:1029700084F8501001B0BDE8F08339B139780173A3
:10298000206B01302063E08E0138E086012518F1CC
:10299000010033D102E000BFFEF7A6FEE08E10B9C1
:1029A000E08F002852D02068816889070ED5E18E1B
:1029B000012D0BD151B1216B002509780173216BD9
:1029C000206801312163E18E0139E1868168C90700
:1029D000E2D0E18F0029DFD0C068A16B012508702B
:1029E000A06B0130A063E08F0138E087D4E700BF1F
:1029F000FEF77AFEA0EB090040453BD2E08E08B915
:102A0000E08F18B32068816889070ED5E18E012D0B
:102A10000BD151B1216B002509780173216B20681E
:102A200001312163E18E0139E1868168C907DFD078
:102A3000E18F0029DCD0C068A16B01250870A06B74
:102A40000130A063E08F0138E087D1E72046802184
:102A500042464B4602F084F8B0B1606D40F0200071
:102A60006065202060650120002184F8501001B0CD
:102A7000BDE8F083012084F851000320002184F890
:102A8000501001B0BDE8F083A06838B90020009074
:102A90002068C1680091806800900098606D0028EF
:102AA0004FF0010004BF84F851000020002184F899
:102AB000501001B0BDE8F083B0B5044690F8500066
:102AC000012804BF0220B0BD012084F8500094F812
:102AD0005100012809D06568B5F5827F62D10428CC
:102AE0004FF0020007D1A5682DB900294FF0010071
:102AF00018BF002A03D1002184F85010B0BD002B6C
:102B0000F9D094F85100002504281CBF052084F852
:102B1000510065652163A386E386A263A387E387EB
:102B2000C4E9105594F8511044F6C11244F6D1137B
:102B3000C0F60002C0F60003E06C042908BF13468B
:102B400044F6D91144F6F922C0F60001C0F600029D
:102B500008BF0A4644F6A111C0F60001C0E90A23E5
:102B6000C0E90C152168A26BE38F0C31FEF756FA11
:102B700078B92268A06C516841F001015160C0E948
:102B80000A55C0E90C55216BE38E0C32FEF746FA6C
:102B900068B1606D40F0100060650120002184F88C
:102BA0005010B0BD0220002184F85010B0BD206844
:102BB0000168490603D4016841F0400101604168A1
:102BC00041F020014160416841F002014160002074
:102BD000002184F85010B0BDB0B5044690F8500004
:102BE000012804BF0220B0BD012084F8500094F8F1
:102BF0005100012809D100294FF0010018BF002A17
:102C000008D1002184F85010B0BD0220002184F8C2
:102C10005010B0BD0320002384F851006365216388
:102C2000A286E286A363C4E91033A387E387A06882
:102C30002268B0F5004F07D1106820F04000106006
:102C4000106840F480401060A06C44F6C91C44F643
:102C5000792E44F6A115C0F6000CC0F6000EC0F6A1
:102C60000005C0E90AECC0E90C53E38E0C32FEF714
:102C7000D5F940B1606D40F0100060650120002181
:102C800084F85010B0BD20680168490603D401687B
:102C900041F040010160416841F02001416041681C
:102CA00041F0020141600020002184F85010B0BDC5
:102CB00040F60870C2F20000012101607047000078
:102CC000704700007047000070470000411E002060
:102CD000B0EB116F1CBF012070474EF21002CEF214
:102CE000000251604EF62351CEF20001F0230B702A
:102CF0000721906011607047704700007047000026
:102D000010B590F83C20012A4FF0020235D0012383
:102D100080F83C3080F83D200268D2F804E0D2F818
:102D200008C00C682EF07003234340F2FF74C4F215
:102D30000004A242536009DCB2F1804F12D040F28D
:102D40000043C4F200039A420CD010E042F6004364
:102D5000C4F201039A4205D040F60003C4F2000316
:102D60009A4204D149682CF08003194391600121F3
:102D7000002280F83D1080F83C20104610BD000075
:102D8000002804BF0120704710B5044690F83D00AC
:102D900028B9002084F83C00204600F067F80220A3
:102DA00084F83D00206840F2FF730268C4F200031B
:102DB00042F6004C9842C4F2010C14DCB0F1804F92
:102DC00019D040F20041C4F20001884213D0984269
:102DD00017DCB0F1804F1CD040F20041C4F200017A
:102DE000884216D019E0604505D040F60001C4F2D3
:102DF00000018842EBD1A16822F070020A43984298
:102E0000E7DD604505D040F60001C4F200018842CC
:102E100003D1216922F440720A43A36922F08001A0
:102E2000D4F804E0E268194360450160C262C0F86A
:102E300028E002D16169CCF8301001214161002005
:102E400084F8461084F83E1084F83F1084F840104F
:102E500084F8411084F8421084F8431084F8441038
:102E600084F8451084F83D1010BD000080B582B094
:102E70000068B0F1804F1CBF02B080BD41F21C0061
:102E8000C4F202000168002241F001010160006803
:102E9000002100F00100019001981C20FEF7BCFD0C
:102EA0001C2002B0BDE88040FEF7A6BD90F83D10A2
:102EB00001291CBF01207047022180F83D100068E5
:102EC00040F2FF72C168C4F20002904241F0010179
:102ED000C16009DCB0F1804F12D040F20041C4F271
:102EE000000188420CD012E042F60041C4F2010118
:102EF000884205D040F60001C4F20001884206D1A4
:102F0000816801F00701062904BF002070470168AD
:102F100041F00101016000207047000080B590F889
:102F20003C20012A4FF0020200F0C280012380F809
:102F30003C3080F83D20D0F800C04FF67772DCF8C6
:102F4000083023EA0202CCF808200B684F2B28DC5B
:102F50001F2B43DD202B44D0302B42D0402B40F0A0
:102F6000A980D1F804E0C968DCF82030DCF8202022
:102F700022F00102CCF82020DCF8182022F0F00228
:102F800042EA011123F00A0242EA0E02CCF81810BC
:102F9000CCF82020DCF8081041F0470121F0300186
:102FA0007DE06F2B25DDB3F5005F46D0B3F5805F84
:102FB00077D0702B7ED1D1E901E3C968DCF8082015
:102FC00043EA0E0322F47F4243EA01211143CCF885
:102FD0000810DCF8081041F0770160E00BB1102B0D
:102FE00068D1DCF8081021F07001194341F00701A5
:102FF00055E0502B34D0602B5CD1D1F804E0C96887
:10300000DCF82030DCF8202022F01002CCF8202060
:10301000DCF8182022F4704242EA013123F0A002C9
:1030200042EA0E12CCF81810CCF82020DCF8081078
:1030300041F0670121F0100131E0D1E901E3C968F5
:10304000DCF8082043EA0E0322F47F4243EA012120
:103050001143CCF80810DCF8081041F480411EE060
:10306000D1F804E0C968DCF82030DCF8202022F038
:103070000102CCF82020DCF8182022F0F00242EA0D
:10308000011123F00A0242EA0E02CCF81810CCF823
:103090002020DCF8081041F0570121F02001CCF885
:1030A00008100022012180F83D10002180F83C101A
:1030B000104680BD0122F5E77047000010B5016899
:1030C00004460869800744BFC8685FEA807038D446
:1030D0000869400744BFC8685FEA40703DD408698A
:1030E000000744BFC8685FEA007043D40869C0069F
:1030F00044BFC8685FEAC06048D40869C0071CBF05
:10310000C8685FEAC0704ED10869000644BFC8684D
:103110005FEA00604FD40869400644BFC8685FEAB0
:10312000406050D40869800646BFC8685FEA806086
:1031300010BD6FF0200220460A61BDE81040FFF785
:10314000DDBD6FF0020008610120207788698007EB
:1031500041D02046FFF7B0FF43E06FF00400086164
:1031600002202077886910F4407F3ED02046FFF788
:10317000A3FF40E06FF00800086104202077C869D1
:1031800080073CD02046FFF797FF3EE06FF010002D
:10319000086108202077C86910F4407F39D02046A4
:1031A000FFF78AFF3BE06FF001000861204600F066
:1031B0003FF82168A8E76FF0800008612046FFF71C
:1031C0009BFD2168A7E76FF040000861204600F0F2
:1031D00031F82168A6E7204600F026F8204600F0E6
:1031E00025F821680020207772E7204600F01CF8BF
:1031F000204600F01BF82168002020776FE720466A
:1032000000F012F8204600F011F821680020207725
:103210006CE7204600F008F8204600F007F8216827
:103220000020207769E70000704700007047000029
:10323000704700007047000070B582B0044690F8F7
:103240004200202809D113460A4600294FF0010008
:1032500018BF002B04D102B070BD022002B070BDB7
:1032600001202063002522206563A262A385656496
:1032700084F842002168E06B44F6C96C45F2290EDF
:1032800044F64D56C0F6000CC0F6000EC0F600061F
:103290000431C0E90ACEC0E90C65FDF7BFFE019517
:1032A000206801680191416801910199216929B360
:1032B00050E8030F216840F4807041E80302EAB14E
:1032C000206850E8030F216840F4807041E8030251
:1032D000A2B1206850E8030F216840F4807041E8F3
:1032E00003025AB1206850E8030F216840F480704F
:1032F00041E8030212B12068DAE700BF206850E815
:10330000050F216840F0010041E80502BAB32068CA
:1033100050E8050F216840F0010041E8050272B352
:10332000206850E8050F216840F0010041E80502DF
:103330002AB3206850E8050F216840F0010041E8F9
:103340000502002ADAD11AE0206850E8050F21684A
:1033500040F0400041E80502DAB1206850E8050F6E
:10336000216840F0400041E8050292B1206850E831
:10337000050F216840F0400041E805024AB120688D
:1033800050E8050F216840F0400041E80502002A9E
:10339000DAD1206B012839D10020009021680A6819
:1033A00000924A680092009A51E8031F226841F097
:1033B000100142E80313002B3FF44DAF206850E8A2
:1033C000030F216840F0100041E803020AB32068AF
:1033D00050E8030F216840F0100041E80302C2B139
:1033E000206850E8030F216840F0100041E8030214
:1033F0007AB1206850E8030F216840F0100041E8DE
:103400000302002A4FF00000D8D124E7012002B0C7
:1034100070BD002002B070BD2DE9F04F81B044F2C4
:1034200000498246C4F20009006809F574429042DE
:103430008B4605D0484500F0848001B0BDE8F08F90
:1034400040F2C005C2F200054FF47A70E968E86204
:103450000120A861481C42F20F71884288BF0020F9
:10346000E8600020286009F54C404021FEF72EF965
:10347000686905F14C078CCFD5E916642861B5F869
:10348000640040F62411C2F20001088340F64010A7
:10349000D5F860C0C2F2000081E88C000268C1E982
:1034A0000364C1F814C0936843F0010393600922D8
:1034B000FDF788FB286900EB0B06B6F5807F15D970
:1034C000C0F5807140F2A428C2F200088EB205F166
:1034D0004C074044394632460024FDF745F8B919F7
:1034E000ABEB06062C614046324607E040F2A421D1
:1034F000C2F20001084405F14C015A46FDF734F8C8
:1035000040F228110120C2F20001C5E905600880DF
:103510000020286040F6D43005F14C01C2F20000D2
:103520001A22FFF789FE40F6D010C2F200000068B0
:10353000016821F004010160DAF8000048457FF4D9
:103540007CAF09F5444001210124FEF7BFF80120BA
:10355000FDF7B2FD40F2A47540F2A430C2F20005BE
:10356000C2F2000029465A46FDF743F8284659465C
:10357000FDF793F840F2C0010BF10100C2F2000127
:10358000086340F61C40CC61C2F2000029464FF4AB
:103590008072FFF751FE40F65820C2F2000000682A
:1035A000016821F00401016001B0BDE8F08F000066
:1035B00010B504460068416994F84120212A56D18B
:1035C00011F0800153D000BF50E8050F216820F0B2
:1035D000800041E80502E2B1206850E8050F21684B
:1035E00020F0800041E805029AB1206850E8050FFC
:1035F000216820F0800041E8050252B1206850E8BF
:10360000050F216820F0800041E805020AB120681A
:10361000DAE7A06B002818BFFDF73CFB206850E8F4
:10362000030F216820F0C00041E80302DAB12068EE
:1036300050E8030F216820F0C00041E8030292B176
:10364000206850E8030F216820F0C00041E8030221
:103650004AB1206850E8030F216820F0C00041E81B
:103660000302002ADAD1202084F841002068416951
:1036700094F84220222A40F0A78011F0400100F087
:10368000A38000BF50E8050F216820F0400041E80A
:103690000502E2B1206850E8050F216820F04000E3
:1036A00041E805029AB1206850E8050F216820F032
:1036B000400041E8050252B1206850E8050F21683A
:1036C00020F0400041E805020AB12068DAE7E06B2B
:1036D000002818BFFDF7DEFA206850E8030F2168C4
:1036E00020F4907041E80302BAB3206850E8030F59
:1036F000216820F4907041E8030272B3206850E81A
:10370000030F216820F4907041E803022AB3206877
:1037100050E8030F216820F4907041E80302002A6A
:10372000DAD11AE0206850E8050F216820F0010086
:1037300041E80502DAB1206850E8050F216820F061
:10374000010041E8050292B1206850E8050F2168A8
:1037500020F0010041E805024AB1206850E8050F59
:10376000216820F0010041E80502002ADAD1206B2F
:10377000012824D1206850E8030F216820F01000B0
:1037800041E80302DAB1206850E8030F216820F015
:10379000100041E8030292B1206850E8030F21684D
:1037A00020F0100041E803024AB1206850E8030FFE
:1037B000216820F0100041E80302002ADAD120201D
:1037C00084F8420000202063002010BD002804BFC0
:1037D0000120704710B50446242084F84100206879
:1037E000C16821F40051C160204600F0ADFB00200B
:1037F000606484F8410084F842002063606384F8C8
:10380000400010BD10B582B040F6D434C2F20004BE
:10381000A0423DD040F61C44C2F20004A04235D183
:10382000204600F091FB0020019021680A68019277
:103830004A680192019A01900A6801924A680192CD
:10384000019A01900A6801924A680192019A0190D6
:103850000A6801924A680192019A019008680190F1
:103860004868019001982046FFF7A2FE2046FFF726
:10387000ADFF204600F0A0FB40F2A471C2F20001AF
:1038800020464FF48072FFF7D7FCB0BB02B010BDEA
:103890000020019021680A6801924A680192019A09
:1038A00001900A6801924A680192019A01900A689F
:1038B00001924A680192019A01900A6801924A684D
:1038C0000192019A0190086801904868019001985E
:1038D0002046FFF76DFE204600F036FB204600F044
:1038E0006BFB40F2C000C2F2000000F14C01204628
:1038F0001A22FFF7A1FC0028C8D002B0BDE8104092
:10390000FDF7EEB8F0B581B0044600680168C26802
:10391000456901F02F03202B02F0200306D12BB1C3
:10392000204601B0BDE8F04001F0E6BB5FEA017C53
:1039300007D005F0010E12F4907F8EF001052FD113
:1039400075B3236B1140CA0618D5012B16D100217F
:103950000091016800914168009100994169490610
:1039600000F18481A18DE28DE38D002B1CBF891AAB
:103970005FEA014240F0FD8001B0F0BD0A0600F1AF
:103980002E824906F8D5C16821F04001C16020218E
:10399000204684F8411001B0BDE8F04000F0C0BD01
:1039A000CE0718BF12F4807603D0666C46F001068D
:1039B000666401F00407012686EA97072F4303D1C6
:1039C000676C47F00207676401F0020786EA570652
:1039D000354303D1656C45F00405656453EA0E0375
:1039E00018BF0123BCF1000F04D51BB1636C43F079
:1039F00008036364636C002BBED01140890603D5B5
:103A0000204601F079FB20684169626C01F04001B9
:103A100002F00802891800F0F38100BF50E8030F9C
:103A2000216820F4907041E80302C2B3206850E896
:103A3000030F216820F4907041E803027AB32068F4
:103A400050E8030F216820F4907041E8030232B37C
:103A5000206850E8030F216820F4907041E80302C9
:103A6000EAB12068DAE700BF206850E8050F216856
:103A700020F0010041E80502DAB1206850E8050FA6
:103A8000216820F0010041E8050292B1206850E869
:103A9000050F216820F0010041E805024AB12068C5
:103AA00050E8050F216820F0010041E80502002AD6
:103AB000DAD1206B012824D1206850E8030F216857
:103AC00020F0100041E80302DAB1206850E8030F4B
:103AD000216820F0100041E8030292B1206850E80C
:103AE000030F216820F0100041E803024AB120686A
:103AF00050E8030F216820F0100041E80302002A7B
:103B0000DAD1202084F84200002020632068416937
:103B1000490640F18E8150E8050F216820F04000F1
:103B200041E80502002A00F07281206850E8050F84
:103B3000216820F0400041E80502002A00F067817A
:103B4000206850E8050F216820F0400041E8050298
:103B5000002A00F05C81206850E8050F216820F001
:103B6000400041E80502002A00F051812068D2E7B8
:103B7000206850E8030F226820F4907042E80303A5
:103B8000BBB3206850E8030F226820F4907042E82D
:103B9000030373B3206850E8030F226820F4907089
:103BA00042E803032BB3206850E8030F226820F497
:103BB000907042E80303002BDAD11AE0206850E845
:103BC000050F226820F0010042E80503DBB1206800
:103BD00050E8050F226820F0010042E8050393B188
:103BE000206850E8050F226820F0010042E8050334
:103BF0004BB1206850E8050F226820F0010042E830
:103C00000503002BDAD1202084F842000020206335
:103C1000206850E8030F226820F0100042E80303F8
:103C2000DBB1206850E8030F226820F0100042E862
:103C3000030393B1206850E8030F226820F01000BE
:103C400042E803034BB1206850E8030F226820F0DC
:103C5000100042E80303002BDAD1022289B2204689
:103C6000626301B0BDE8F040FFF7D6BBE26B1168BC
:103C70004B689EB2002E3FF47FAEA18D8E42BFF402
:103C80007BAEE3859269202A00F09E8050E8030F06
:103C9000216820F4807041E80302E2B1206850E816
:103CA000030F216820F4807041E803029AB1206874
:103CB00050E8030F216820F4807041E8030252B1FC
:103CC000206850E8030F216820F4807041E8030267
:103CD0000AB12068DAE7206850E8050F216820F073
:103CE000010041E80502BAB3206850E8050F2168D9
:103CF00020F0010041E8050272B3206850E8050F8A
:103D0000216820F0010041E805022AB3206850E84C
:103D1000050F216820F0010041E80502002ADAD1F0
:103D20001AE0206850E8050F216820F0400041E8C3
:103D30000502DAB1206850E8050F216820F0400044
:103D400041E8050292B1206850E8050F216820F093
:103D5000400041E805024AB1206850E8050F21689B
:103D600020F0400041E80502002ADAD1202084F842
:103D7000420000202063206850E8030F216820F0F3
:103D8000100041E80302DAB1206850E8030F21680F
:103D900020F0100041E8030292B1206850E8030FC0
:103DA000216820F0100041E803024AB1206850E881
:103DB000030F216820F0100041E80302002ADAD145
:103DC000E06BFCF767FFA18D02206063E08D081AAD
:103DD00081B2204601B0BDE8F040FFF71DBB94F86A
:103DE000411021297FF4C8ADA168B1F5805F01D1F0
:103DF000216921B3216A4A1C22620978416025E0C9
:103E00002046FFF7FFFC0020606401B0F0BDE06BCE
:103E100078B144F64151C0F600014163FCF75EFF02
:103E200000283FF4A9ADE06B416B01B0BDE8F04064
:103E30000847204601B0BDE8F040FFF7E3BC216A27
:103E400031F8022B6FF35F2242602162E18C01396D
:103E50000A04E1847FF490ADC16821F08001C16063
:103E6000C16841F04001C16001B0F0BD002804BF4D
:103E70000120704710B5044690F8410028B9002091
:103E800084F84000204600F097F8242084F8410090
:103E90002068D4E90212C36823F40053C3600369A5
:103EA00023F440531A430261D4E904231143C26846
:103EB000194341F20C639A431143C1604169A269FD
:103EC00021F44071114343F60002C4F20102904212
:103ED000416102D0FDF7B8FE01E0FDF7C9FE62685E
:103EE000192148439100B0FBF1F048F21F51C5F28F
:103EF000EB11A0FB01235A096FF0630302FB0300DF
:103F0000322303EB0010A0FB0101F02303EA51135D
:103F1000206803EB0212C1F343111144816001696F
:103F200021F490410161416921F02A014161C16898
:103F300041F40051C16000202021606484F84110E8
:103F400084F84210606310BDB0B50446006844F2C6
:103F50000041C4F20001884212D043F60001C4F2CD
:103F60000101884218BFB0BD41F21800C4F202003E
:103F70000168252521F4804101604FF4C06109E00A
:103F800041F21800C4F202004168262521F40031F4
:103F900041600C2140F60000C4F20100FDF79EF9DB
:103FA000E06BFCF7F3FEA06BFCF7F0FE2846BDE8E3
:103FB000B040FDF70DBD00002DE9F04186B00027AF
:103FC0000597CDE903770446006844F20041C4F246
:103FD0000001884202976CD043F60001C4F201014F
:103FE000884240F0D78041F21800C4F20200016814
:103FF00040F6000541F4804101600168C4F201050A
:1040000001F4804101910199016802AE41F004017F
:104010000160006840F2440800F00400019001983B
:104020004FF4007002900220039003200590284670
:104030003146C4F20208FDF73BFA4FF4806002906B
:10404000002728463146CDE90377FDF731FA40F6DF
:10405000D01508F11400C2F200058026C5E900075A
:104060002846C5E90276C5E90477C5E90677FCF775
:1040700091FF002818BFFCF733FDE5636C6240F642
:104080001425C2F200051020C5E900802846C5E9C4
:104090000276C5E90477C5E90677FCF77BFF0028BF
:1040A0006BD0FCF71DFD40F614252526C2F2000555
:1040B00066E041F21800C4F20200416840F60005D3
:1040C00041F4003141604168C4F2010501F400315E
:1040D00001910199016802AE41F00401016000689C
:1040E00040F2440800F0040001900198042002907E
:1040F000022003900320059028463146C4F20208AE
:10410000FDF7D6F90820CDE90207012004902846E2
:104110003146FDF7CDF940F6582508F12800C2F2E6
:1041200000058026C5E900072846C5E90276C5E9ED
:104130000477C5E90677FCF72DFF002818BFFCF7C8
:10414000CFFCE5636C6240F69C2508F13C00C2F2AE
:1041500000051021002285E847002846C5E9042211
:10416000C5E90622FCF716FF48B1FCF7B9FC40F69A
:104170009C252626C2F2000502E0252600E0262620
:10418000304600210022A5636C62FDF745FC3046F5
:10419000FDF732FC06B0BDE8F0810000704700007A
:1041A000704700002DE9F041044690F841002028B6
:1041B0001CBF0220BDE8F0810F4600294FF001002E
:1041C00000F0DC801646002A08BFBDE8F0814FF001
:1041D000000821201D46C4F8448084F84100FDF702
:1041E00083FAA684E684A1680646B1F5805F05D10E
:1041F0002069002814BF3846B8460746E28C20687C
:10420000016812B36A1C47D0002D00F0C78000BFC0
:10421000090609D4FDF768FA801BA84200F2C6809F
:10422000206801680906F5D517B117F8011B04E0ED
:1042300038F8021B00276FF35F214160E18C0139E0
:10424000E184E28C0168002AE2D1490611D4002DF4
:1042500040D0691C38D100BF016849065CBF0168C5
:104260005FEA416105D40168490602D40168490644
:10427000F2D5202084F841000020BDE8F08138F814
:10428000021B00276FF35F214160E18C0139E1845B
:10429000E28C0168002AD8D009065FBF01685FEA96
:1042A000016101685FEA016104D40168090601D473
:1042B0000168F1E7002FE2D017F8011BE4E700BF27
:1042C000206800684006D4D4FDF70EFA801BA8428F
:1042D000F6D900BF206850E8030F216820F4D070A1
:1042E00041E80302BAB3206850E8030F216820F4C4
:1042F000D07041E8030272B3206850E8030F2168D0
:1043000020F4D07041E803022AB3206850E8030F7C
:10431000216820F4D07041E80302002ADAD11AE0C3
:10432000206850E8050F216820F0010041E80502EF
:10433000DAB1206850E8050F216820F0010041E85B
:10434000050292B1206850E8050F216820F00100B5
:1043500041E805024AB1206850E8050F216820F0C5
:10436000010041E80502002ADAD1202084F841004A
:1043700084F84200002084F840000320BDE8F0816A
:1043800038F8021B00276FF35F214160E18C01398F
:10439000E184E28C0168002A3FF457AF090605D595
:1043A000002FEDD017F8011BEFE700BF206850E8A1
:1043B000030F216820F4D07041E80302BAB32068EB
:1043C00050E8030F216820F4D07041E8030272B373
:1043D000206850E8030F216820F4D07041E8030200
:1043E0002AB3206850E8030F216820F4D07041E818
:1043F0000302002ADAD11AE0206850E8050F21688C
:1044000020F0010041E80502DAB1206850E8050F0C
:10441000216820F0010041E8050292B1206850E8CF
:10442000050F216820F0010041E805024AB120682B
:1044300050E8050F216820F0010041E80502002A3C
:10444000DAD1202084F8410084F84200002084F86A
:1044500040000320BDE8F08170B5044690F84100AB
:1044600020281CBF022070BD00294FF0010555D047
:104470001346002A52D0002521202162A384E38420
:10448000656484F841002268A06B45F2410C45F256
:10449000F10E44F64D56C0F6000CC0F6000EC0F604
:1044A00000060432C0E90ACEC0E90C65FCF7B6FD8F
:1044B00020686FF0400140F8141B50E8000F21689D
:1044C00040F0800041E8050242B300BF206850E898
:1044D000050F216840F0800041E80502EAB120683C
:1044E00050E8050F216840F0800041E8050292B1D4
:1044F000206850E8050F216840F0800041E805027F
:104500004AB1206850E8050F216840F0800041E87A
:104510000502002ADAD1002070BD0025284670BDB2
:1045200040F6D431C2F2000188420ED040F61C4160
:10453000C2F20001884218BF7047012140F6000016
:10454000C4F201000022FDF7C9B84FF4006140F643
:104550000000C4F201000022FDF7C0B8704700005F
:10456000FEE7000080B540F6401043F20001C2F2C1
:104570000000C4F202010160FCF75CFB002808BFE8
:1045800080BDBDE88040FCF7ABBA000080B582B0CA
:1045900041F21400C4F202000168002241F001015E
:1045A00001600068002100F00100019001980C20DA
:1045B000FDF732FA0C20FDF71FFA0D200021002232
:1045C000FDF72AFA0D20FDF717FA0E200021002230
:1045D000FDF722FA0E20FDF70FFA0F20002100222E
:1045E000FDF71AFA0F20FDF707FA1020002100222C
:1045F000FDF712FA1020FDF7FFF91120002100222B
:10460000FDF70AFA112002B0BDE88040FDF7F4B9C9
:104610002DE9F04F85B041F21800C4F202000168A4
:1046200040F6000841F0100101600168C4F2010881
:1046300001F0100101910199016808F5006941F04C
:10464000200101600168002201F02001019101991F
:10465000016844F2707641F00401016001680024B1
:1046600001F0040101910199016841F00801016024
:10467000006844F2707100F008000190019848460B
:10468000FDF72CF8404641F603110022FDF726F80D
:104690004046102101220125FDF720F808F580672A
:1046A000384643F62341002243F6234AFDF716F825
:1046B000CDE9016501AE4FF0020B48463146039447
:1046C000CDF810B0FCF7F4FE41F20310CDE901057E
:1046D00040463146CDE9034BFCF7EAFE4FF401605A
:1046E000CDE9010540463146CDE90345FCF7E0FE42
:1046F00038463146CDE901A5CDE9034BFCF7D8FE9C
:104700004CF21030CDE90104384631460394FCF7F1
:10471000CFFE4FF4006001900020C1F21100CDE9FE
:10472000020448463146FCF7C3FE4FF48050CDE901
:104730000104484631460394FCF7BAFE0420CDE953
:10474000010408F5406031460394FCF7B1FE05B062
:10475000BDE8F08F80B540F6E02045F20041C2F29E
:104760000000C4F2000148F2A06200234FF4804C24
:10477000C0F2010280E80E00C0E9033CC0E9053345
:10478000C0E90733FCF7B6FF002808BF80BDBDE8CD
:104790008040FCF7A5B9000080B540F6343043F204
:1047A0000001C2F20000C4F201014FF48272002342
:1047B00080E80E0000F114014FF4007C4FF0080E69
:1047C000C0E9033381E808500A21C0E90833C0E991
:1047D0000A31FDF7B1FC002808BF80BDBDE880406C
:1047E000FCF77EB980B586B040F68C300021C2F26D
:1047F00000004FF08042472340F2E73CCDE904112E
:10480000CDE90211CDE90011C0E90023C0E9021C85
:10481000016180218161FEF7B3FA002818BFFCF71F
:104820005FF94FF48050029040F68C30C2F20000E5
:1048300002A9FEF773FB002818BFFCF751F900200E
:10484000CDE9000040F68C30C2F200006946FEF768
:1048500057FA002818BFFCF743F906B080BD0000E6
:1048600080B540F6D43043F60001C2F20000C4F235
:10487000010100234FF00C0C4FF4E13280E80E00F0
:10488000C0E90333C0E905C3C361FFF7EFFA0028AD
:1048900008BF80BDBDE88040FCF722B980B540F676
:1048A0001C4044F20041C2F20000C4F200010023A7
:1048B0004FF00C0C4FF4613280E80E00C0E9033376
:1048C000C0E905C3C361FFF7D1FA002808BF80BD66
:1048D000BDE88040FCF704B9FEE70000FEE70000F9
:1048E0007047000070B540F22815C2F200050020A4
:1048F000642428800120FCF7DFFB013C2888210488
:1049000001D00028F6D040F60004C4F2010420468D
:104910004FF4006101220126FCF7E0FE0220FCF7C3
:10492000CBFB40F6D43049F27751C2F20000C0F61A
:10493000000102220523FFF735FC0220FCF7BCFB37
:1049400020464FF4006100220024FCF7C7FE40F22D
:104950009C10C2F2000004604FF4FA6005F11802E6
:104960004FF4C87113C2C5E90944C5E90B66C5E92E
:104970000D66EC6303F056FE01F0F6F801F096FBCD
:10498000BDE8704003F082BF40F63430C2F2000050
:10499000FDF752BB406A0021C187C186FDF74ABBC3
:1049A000406A01684A6822F003024A60416D41F0A2
:1049B00010014165012180F85110FDF73BBB00005B
:1049C000406AFDF713BE0000406AFEF779B90000A7
:1049D000406AFEF779B90000B0B5446A0546FCF7B5
:1049E00083FE29680968890640D40346D4E9000299
:1049F000A168456825F020054560B1B14568B2F56C
:104A0000827F25F00105456018D1B1F5004F02D035
:104A1000B1F5806F12D10268B1F5806F22F04002CB
:104A200002600BD1204601210AE04168B2F5827F85
:104A30000CBF21F0030121F00101416020468021DB
:104A4000642200F08DF828B1606D40F020006065B0
:104A5000202060650020E087012084F85100606D0F
:104A600020B12046BDE8B040FDF7E4BA2046BDE8DD
:104A7000B040FDF7B3BD0000B0B582B0446A054652
:104A8000FCF732FE2968096889062ED4034620689F
:104A90006422416821F020014160416821F0020157
:104AA00041602046802100F05BF838B1606D40F035
:104AB00020006065606D40F020006065A06838B936
:104AC000002001902068C1680191806801900198E0
:104AD0000020E086012084F85100606D28B1204656
:104AE00002B0BDE8B040FDF7A5BA204602B0BDE86F
:104AF000B040FEF7DDB80000B0B5446A0546FCF7EB
:104B0000F3FD29680968890625D4034620686422D4
:104B1000416821F0200141602046802100F020F80A
:104B200038B1606D40F020006065606D40F020009D
:104B300060652068416821F0030141600020E08643
:104B4000E087012084F85100606D20B12046BDE867
:104B5000B040FDF76FBA2046BDE8B040FEF7B2B8EE
:104B60002DE9F04182B01E4690460D460446FCF702
:104B7000BBFD301A00EB0807FCF7B6FD40F2080158
:104B8000C2F200010968C1F3CB3179430191216878
:104B90008A682A40AA4227D1064618F101001FD090
:104BA000FCF7A2FD801BB84222D20198019900288F
:104BB000A1F1010101912168896808BF074601EA56
:104BC0000500A842ECD00FE088682840A8420BD12D
:104BD00088682840A84207D188682840A84203D1A5
:104BE00088682840A842EFD0002002B0BDE8F081DC
:104BF000D4E900014268B1F5827F22F0E002426010
:104C00000AD1A168B1F5004F02D0B1F5806F03D190
:104C1000016821F040010160A16AB1F5005F07D190
:104C2000016821F400510160016841F40051016004
:104C3000012084F85100002084F85000032002B0C5
:104C4000BDE8F0817047000080B5FCF759FE40F2E6
:104C5000C00040F2E402C2F20000C2F200020168A9
:104C60001268013102EB82029142016007D90021F2
:104C7000016040F2E000C2F200000121016040F258
:104C8000C800C2F20000016840F20C02013101606C
:104C9000C2F2000201681268914207D90021016046
:104CA00040F2C400C2F200000121016040F2EC00B9
:104CB000C2F20000016800291CBF0139016080BDFB
:104CC0007047000040F68C30C2F20000FEF7F6B9E3
:104CD000F0B581B040F228160D460446C2F2000637
:104CE00000206427308000BF0120FCF7E5F9013F78
:104CF0003088390401D00028F6D040F60006C4F20E
:104D0000010630464FF400610122FCF7E7FC022067
:104D1000FCF7D2F940F6D430AAB2C2F20000214624
:104D20000523FFF73FFA0220FCF7C6F930464FF49F
:104D30000061002201B0BDE8F040FCF7CFBC0000EC
:104D4000406A0021C185C184FEF75CBD406A0168EC
:104D50004A6990F84130212B2DD112F080022AD0DF
:104D60000022C28451E8031F026821F0C00142E81A
:104D70000313E3B1016851E8031F026821F0C00189
:104D800042E803139BB1016851E8031F026821F058
:104D9000C00142E8031353B1016851E8031F0268E0
:104DA00021F0C00142E803130BB10168DAE72021CA
:104DB00080F8411001684A6990F84230222B7DD179
:104DC00012F040027AD00022C28500BF51E8031FD2
:104DD000026821F4907142E80313C3B3016851E8FB
:104DE000031F026821F4907142E803137BB301684A
:104DF00051E8031F026821F4907142E8031333B3B2
:104E0000016851E8031F026821F4907142E803131E
:104E1000EBB10168DAE700BF016851E8051F0268DD
:104E200021F0010142E80513DBB1016851E8051FDB
:104E3000026821F0010142E8051393B1016851E8CD
:104E4000051F026821F0010142E805134BB101681A
:104E500051E8051F026821F0010142E80513002B0B
:104E6000DAD1016B012924D1016851E8031F0268DE
:104E700021F0100142E80313DBB1016851E8031F80
:104E8000026821F0100142E8031393B1016851E870
:104E9000031F026821F0100142E803134BB10168BF
:104EA00051E8031F026821F0100142E80313002BB0
:104EB000DAD1202180F8421000210163416C41F0D9
:104EC00010014164FEF79EBC0168406A09688906CA
:104ED00000F19F800021C185016851E8031F02682D
:104EE00021F4807142E80313E3B1016851E8031F24
:104EF000026821F4807142E803139BB1016851E814
:104F0000031F026821F4807142E8031353B1016862
:104F100051E8031F026821F4807142E80313002B5B
:104F2000DAD100BF016851E8051F026821F00101D4
:104F300042E80513BBB3016851E8051F026821F080
:104F4000010142E8051373B3016851E8051F0268C7
:104F500021F0010142E805132BB3016851E8051F58
:104F6000026821F0010142E80513002BDAD11AE0B2
:104F7000016851E8051F026821F0400142E805136D
:104F8000DBB1016851E8051F026821F0400142E8E9
:104F9000051393B1016851E8051F026821F0400133
:104FA00042E805134BB1016851E8051F026821F082
:104FB000400142E80513002BDAD1202180F842108D
:104FC000016B012925D100BF016851E8031F026868
:104FD00021F0100142E80313DBB1016851E8031F1F
:104FE000026821F0100142E8031393B1016851E80F
:104FF000031F026821F0100142E803134BB101685E
:1050000051E8031F026821F0100142E80313002B4E
:10501000DAD100214163016B012918BFFFF7BEB847
:10502000818DFEF7F9B90000406A01214163016BEF
:10503000012918BFFFF7B4B8818D4908FEF7ECB914
:105040000168406A0968890648BFFFF769BA00210C
:10505000C18400BF016851E8051F026821F080018A
:1050600042E80513E3B1016851E8051F026821F029
:10507000800142E805139BB1016851E8051F0268F1
:1050800021F0800142E8051353B1016851E8051F82
:10509000026821F0800142E80513002BDAD100BF3D
:1050A000016851E8031F026841F0400142E8031320
:1050B000EBB1016851E8031F026841F0400142E88A
:1050C0000313A3B1016851E8031F026841F04001D6
:1050D00042E80313002B08BF7047016851E8031F23
:1050E000026841F0400142E80313002BD8D1704719
:1050F000406AFFF733BA000081B090F842102229CD
:1051000020D18368B3F5805F08D10169002964D09C
:1051100000F128010A6803685B680AE0014651F85B
:10512000282F13B90369002BF5D003685B6803F0DF
:105130007F0313700A6801320A60C18D01390A04C5
:10514000C18501D001B070470168CA6822F0200211
:10515000CA60CA6822F48072CA604A6922F00102F9
:105160004A61202280F8422000224263036B012B17
:105170003CD1026351E8031F026821F0100142E8AC
:1051800003130168DBB151E8031F026821F010012D
:1051900042E80313016893B151E8031F026821F04C
:1051A000100142E8031301684BB151E8031F026884
:1051B00021F0100142E803130168002BDAD10A68DC
:1051C000D20606D5002200920A6800924968009132
:1051D0000099818D01B0FEF71FB90168826A4968A4
:1051E0006FF35F2122F8021B8262A6E701B0FEF78F
:1051F000D5BF000040F6D430C2F20000FEF782BBFB
:1052000040F61C40C2F20000FEF77CBBFEE7000047
:10521000704700007047000010B540F608740A4659
:105220000146C2F200040020206040F63430C2F291
:105230000000FDF753F92068002818BF10BD00BF1B
:1052400000BF20680028FBD010BD000080B582B0F0
:1052500040F60870C2F200000021016040F63430D0
:10526000C2F200000DF1070101220A23FDF738F810
:105270009DF8070002B080BD10B540F60004C4F2EE
:105280000104204610210022FCF728FA20461021B4
:1052900000BFFCF715FA0128F8D010BD10B540F694
:1052A0000004C4F20104204610210122FCF716FA82
:1052B0002046102100BFFCF703FA0028F8D010BDEB
:1052C00010B540F608740A460146C2F200040020F8
:1052D000206040F63430C2F20000FDF77DFC20680B
:1052E000002818BF10BD00BF00BF20680028FBD0F9
:1052F00010BD000080B582B08DF8070040F6087040
:10530000C2F200000021016040F63430C2F2000019
:105310000DF1070101220023FDF76AF902B080BDFB
:10532000B0B582B040F21005C2F20005E96804464B
:10533000884768698047686A70B1AA6A62B1200CC0
:105340008DF80500200A8DF806000DF105000321F7
:105350008DF8074090470AE0296AC4F30740884760
:10536000296AC4F307208847296AE0B28847E869B8
:105370008047A9690446884728698047204602B0CB
:10538000B0BD0000F0B581B040F21007C2F20007D6
:105390000D46F96814460646884778698047786A5A
:1053A00090B1BA6A82B1300C8DF80100300A8DF8E4
:1053B00002000DF1010003218DF8036090477A6A25
:1053C00028462146904713E0396AC6F307408847CC
:1053D000396AC6F307208847396AF0B288473CB17A
:1053E000013D00BFF8698047013C05F8010FF9D184
:1053F000B86980473869804701B0F0BDF0B581B029
:1054000040F21006C2F200060C46F16805468847D5
:1054100070698047B26A45F004076AB1280C8DF8BC
:105420000000280A8DF80100684604218DF80270FA
:105430008DF8034090470DE0316AC5F30740884777
:10544000316AC5F307208847316AF8B28847316A64
:1054500020468847B06980473069804701B0F0BD79
:105460002DE9F04182B040F21007C2F200078846F1
:10547000F96814460646884778698047BA6A46F054
:10548000040582B1300C8DF80500300A8DF8060055
:105490000DF1050003218DF807509047BA6A404688
:1054A0002146904714E0396AC6F307408847396AB5
:1054B000C6F307208847396AE8B2884744B1A8F1A3
:1054C000010500BF396A15F8010F8847013CF9D181
:1054D000B86980473869804702B0BDE8F0810000B4
:1054E0004EF60C50BFF34F8FCEF20000016804223D
:1054F00001F4E061C0F2FA5211430160BFF34F8F33
:1055000000BFFDE74EF60C50BFF34F8FCEF2000008
:105510000168042201F4E061C0F2FA521143016013
:10552000BFF34F8F00BFFDE740F2C000C2F20000A2
:105530000021C0E90D11C0E90F11C0E91111704738
:10554000082882BFFF2040B2704770B50446400172
:1055500000F1080606F5807528461021FFF74EFF7A
:105560002846FFF7DDFE0028FAD106F500701F215E
:10557000FFF744FF40F22C21C2F2000101200A880B
:105580004B88A040824323EA00000A80488001EB58
:10559000440000228281081906F54074027100BFA0
:1055A0002046FFF7BDFE0028FAD10120BDE870407B
:1055B00040B27047B0B505285AD80C46DFE800F075
:1055C000032D545B62744FF4106021460622FFF7EE
:1055D00047FF04F10E014FF480700422FFF740FFF3
:1055E00004F10A014FF4A0600422FFF739FFA11D66
:1055F0004FF470600422FFF733FF40F24820A17C93
:10560000C2F20000E27CA37D4170A18A8270A0F802
:1056100003100370002568B2B0BD4FF4106021463E
:105620000622FFF7AFFE04F10E014FF48070042252
:10563000FFF7A8FE04F10A014FF4A0600422FFF76F
:10564000A1FEA11D4FF470600422FFF79BFE40F203
:105650004820C2F20000D0F801100078C4F81210FF
:10566000A075002568B2B0BD247814F0C50F2FD006
:10567000FF2568B2B0BD00200025FFF751FE207065
:1056800068B2B0BD21784FF4D850FFF7B7FEE1788B
:105690004FF4C850FFF7B2FEA1784FF4D050FFF797
:1056A000ADFE002568B2B0BD4FF4D850FFF738FE0C
:1056B00020704FF4C850FFF733FE05464FF4D0502A
:1056C000FFF72EFE40EA05206080002568B2B0BDDD
:1056D00000200025FFF724FE40EA04010020FFF728
:1056E0008DFE68B2B0BD00002DE9F04FA9B009A849
:1056F0008021FAF7D2FF40F2C00BC2F2000BDBF8B8
:10570000201040F6241500200129C2F2000508905F
:10571000CDE90600CDE90400CDE9020001900ED1EB
:10572000CBF80400CBF80800C5F80200C5F8060065
:10573000C5F80A00C5F80E00C5F8120018E040F2DE
:105740005011C2F20001DBF81800096880F0010076
:1057500081F00101084306D0DBF80400012802D0E3
:1057600029B0BDE8F08F0020CBF80400CBF808008A
:1057700041F20000C4F20100A0F500694846022190
:10578000FBF7A4FFDBF818004FF00008012804BF66
:105790000020CBF81800484601210122CBF82080D8
:1057A000FBF79CFFB5F9022009AEE7A13046FAF7F6
:1057B00027FD40F2BC1AC2F2000AA888DAF80410E9
:1057C00049F2C4444843DBF83410C0F60004401AE0
:1057D00001AF02B238462146CDE90188CDE9038800
:1057E000CDE90588CDF81C80CDF82080FAF708FDBA
:1057F00030463946FAF7ACFEE888DAF80410CDE90D
:1058000007884843DBF83810CDE90588401A02B212
:1058100038462146CDE90388CDF80880CDF80480CC
:10582000FAF7EEFC30463946FAF792FE2889DAF8A4
:105830001410CDE907884843DBF83C10CDE9058812
:10584000401A02B238462146CDE90388CDF80880D7
:10585000CDF80480FAF7D4FC30463946FAF778FEE2
:105860006889DAF81410CDE907884843DBF840105E
:10587000CDE90588401A02B238462146CDE90388B1
:10588000CDF80880CDF80480FAF7BAFC30463946E6
:10589000FAF75EFEA889DAF82410CDE907884843B4
:1058A000DBF84410CDE90588401A02B2384621469B
:1058B000CDE90388CDF80880CDF80480FAF7A0FC84
:1058C00030463946FAF744FEE889DAF82410CDE983
:1058D00007884843DBF84810CDE90588401A02B232
:1058E00038462146CDE90388CDF80880CDF80480FC
:1058F000FAF786FC30463946FAF72AFE49F2C944DF
:105900006A8AC0F6000438462146CDF82080CDE9E9
:105910000688CDE90488CDE90288CDF80480FAF73D
:105920006FFC30463946FAF713FEAA8A38462146FC
:10593000CDF82080CDE90688CDE90488CDE902883C
:10594000CDF80480FAF75CFC30463946FAF700FEE1
:105950006A8A38462146CDF82080CDE90688CDE90F
:105960000488CDE90288CDF80480FAF749FC304676
:105970003946FAF7EDFDAA8A38462146CDF820804F
:10598000CDE90688CDE90488CDE90288CDF8048008
:10599000FAF736FC30463946FAF7DAFD2A8A6CA166
:1059A0003846CDF82080CDE90688CDE90488CDE9D8
:1059B0000288CDF80480FAF723FC30463946FAF71E
:1059C000C7FD40F23810C2F200000068298A01F0D9
:1059D0000106CBF82850C8B141F20005C4F2010518
:1059E00028464FF48071324686F00104FBF776FEBC
:1059F000DBF82800008AC0061FD428464FF4007147
:105A00000022FBF76BFE04F1100625E041F20005D1
:105A1000C4F2010586F0010228464FF48071FBF7BD
:105A20005DFEDBF82800008AC0060ED428464FF43D
:105A300000710122FBF752FE0EE028464FF4007180
:105A40000122FBF74BFE264606E028464FF4007184
:105A50000022FBF743FE1036DBF82800DAF8381096
:105A6000B0F91200814206D948464FF480710122F4
:105A7000FBF734FE06E048464FF480710022FBF746
:105A80002DFE2036DBF82800DAF83810B0F91400C3
:105A9000814206D948464FF480510122FBF71EFE91
:105AA00006E048464FF480510022FBF717FE02360D
:105AB00028461021FBF704FEA5F580640128204646
:105AC0004FF0010108BF0436FBF7FAFD012820461C
:105AD0004FF4006108BF4036FBF7F2FD0128204675
